{
  "address": "0xB845d26b35170E3cd73861aAe53E0c121F4af639",
  "abi": [
    {
      "inputs": [
        {
          "internalType": "address",
          "name": "_tokenAddress",
          "type": "address"
        }
      ],
      "stateMutability": "nonpayable",
      "type": "constructor"
    },
    {
      "inputs": [],
      "name": "Exchange__AmountIsLessThanMinimumAmount",
      "type": "error"
    },
    {
      "inputs": [],
      "name": "Exchange__AmountShouldBeGreaterThanZero",
      "type": "error"
    },
    {
      "inputs": [],
      "name": "Exchange__InsufficientReturnReserve",
      "type": "error"
    },
    {
      "inputs": [
        {
          "internalType": "string",
          "name": "message",
          "type": "string"
        }
      ],
      "name": "Exchange__LiquidityShouldBeZero",
      "type": "error"
    },
    {
      "inputs": [
        {
          "internalType": "string",
          "name": "message",
          "type": "string"
        }
      ],
      "name": "Exchange__TransferFailed",
      "type": "error"
    },
    {
      "inputs": [
        {
          "internalType": "uint256",
          "name": "tokens",
          "type": "uint256"
        }
      ],
      "name": "SwapTokenToEth",
      "outputs": [
        {
          "internalType": "uint256",
          "name": "",
          "type": "uint256"
        }
      ],
      "stateMutability": "nonpayable",
      "type": "function"
    },
    {
      "inputs": [],
      "name": "getEthBalance",
      "outputs": [
        {
          "internalType": "uint256",
          "name": "",
          "type": "uint256"
        }
      ],
      "stateMutability": "view",
      "type": "function"
    },
    {
      "inputs": [],
      "name": "getTokenReserve",
      "outputs": [
        {
          "internalType": "uint256",
          "name": "",
          "type": "uint256"
        }
      ],
      "stateMutability": "view",
      "type": "function"
    },
    {
      "inputs": [
        {
          "internalType": "uint256",
          "name": "tokenAmount",
          "type": "uint256"
        }
      ],
      "name": "init",
      "outputs": [
        {
          "internalType": "uint256",
          "name": "",
          "type": "uint256"
        }
      ],
      "stateMutability": "payable",
      "type": "function"
    },
    {
      "inputs": [
        {
          "internalType": "address",
          "name": "",
          "type": "address"
        }
      ],
      "name": "liquidity",
      "outputs": [
        {
          "internalType": "uint256",
          "name": "",
          "type": "uint256"
        }
      ],
      "stateMutability": "view",
      "type": "function"
    },
    {
      "inputs": [
        {
          "internalType": "uint256",
          "name": "input_amount",
          "type": "uint256"
        },
        {
          "internalType": "uint256",
          "name": "input_reserve",
          "type": "uint256"
        },
        {
          "internalType": "uint256",
          "name": "output_reserve",
          "type": "uint256"
        }
      ],
      "name": "price",
      "outputs": [
        {
          "internalType": "uint256",
          "name": "",
          "type": "uint256"
        }
      ],
      "stateMutability": "pure",
      "type": "function"
    },
    {
      "inputs": [],
      "name": "provideLiquidity",
      "outputs": [
        {
          "internalType": "uint256",
          "name": "",
          "type": "uint256"
        }
      ],
      "stateMutability": "payable",
      "type": "function"
    },
    {
      "inputs": [],
      "name": "swapEthToToken",
      "outputs": [
        {
          "internalType": "uint256",
          "name": "",
          "type": "uint256"
        }
      ],
      "stateMutability": "payable",
      "type": "function"
    },
    {
      "inputs": [],
      "name": "totalLiquidity",
      "outputs": [
        {
          "internalType": "uint256",
          "name": "",
          "type": "uint256"
        }
      ],
      "stateMutability": "view",
      "type": "function"
    },
    {
      "inputs": [
        {
          "internalType": "uint256",
          "name": "amount",
          "type": "uint256"
        }
      ],
      "name": "withdraw",
      "outputs": [
        {
          "internalType": "uint256",
          "name": "",
          "type": "uint256"
        },
        {
          "internalType": "uint256",
          "name": "",
          "type": "uint256"
        }
      ],
      "stateMutability": "nonpayable",
      "type": "function"
    }
  ],
  "transactionHash": "0xa178579e233373070b189c381db3d8117fba86cbf36fc443d10c9766fc1e23b8",
  "args": [
    "0xf73182c7BcD31f62F7c9A19A19FA34d3b98E5d6a"
  ],
  "numDeployments": 1,
  "solcInputHash": "6a5a6600cbb0ae67050c48056421f49c",
  "bytecode": "0x608060405234801561001057600080fd5b50604051610a30380380610a3083398101604081905261002f91610054565b600080546001600160a01b0319166001600160a01b0392909216919091179055610084565b60006020828403121561006657600080fd5b81516001600160a01b038116811461007d57600080fd5b9392505050565b61099d806100936000396000f3fe6080604052600436106100915760003560e01c806375c9f3ac1161005957806375c9f3ac1461012f578063b7b0422d14610137578063b8c876b11461014a578063eee1de2314610177578063f1d9f88b1461019757600080fd5b806315770f92146100965780632071a9f4146100bf5780632e1a7d4d146100df57806360c97b221461011457806370ed0ada1461011c575b600080fd5b3480156100a257600080fd5b506100ac60015481565b6040519081526020015b60405180910390f35b3480156100cb57600080fd5b506100ac6100da366004610832565b6101ac565b3480156100eb57600080fd5b506100ff6100fa36600461085e565b610204565b604080519283526020830191909152016100b6565b6100ac610368565b34801561012857600080fd5b50476100ac565b6100ac6104ae565b6100ac61014536600461085e565b610572565b34801561015657600080fd5b506100ac610165366004610877565b60026020526000908152604090205481565b34801561018357600080fd5b506100ac61019236600461085e565b6106b0565b3480156101a357600080fd5b506100ac610738565b6000806101bb856103e56107aa565b91505060006101ca82856107aa565b91505060006101db866103e86107aa565b91505060006101ea82856107f5565b91506101f8905081846108b6565b98975050505050505050565b6000806000610211610738565b9050600061021f85476107aa565b915050600061022e86846107aa565b91505060006001548361024191906108b6565b905060006001548361025391906108b6565b336000908152600260205260409020549091506102709083610810565b336000908152600260205260409020555060015461028e9083610810565b60015550604051339083156108fc029084906000818181858888f193505050501580156102bf573d6000803e3d6000fd5b5060005460405163a9059cbb60e01b8152336004820152602481018390526001600160a01b039091169063a9059cbb906044016020604051808303816000875af1158015610311573d6000803e3d6000fd5b505050506040513d601f19601f8201168201806040525081019061033591906108d8565b61035b57604051632e49196f60e01b8152600401610352906108fa565b60405180910390fd5b9097909650945050505050565b6000806103754734610810565b9150506000610382610738565b9050600061039034836107aa565b91505060006103a08460016107f5565b9150600090506103b082846108b6565b9050600085600154346103c39190610923565b6103cd91906108b6565b336000908152600260205260409020549091506103ea90826107f5565b336000908152600260205260409020555060015461040890826107f5565b600155506000546040516323b872dd60e01b8152336004820152306024820152604481018490526001600160a01b03909116906323b872dd906064016020604051808303816000875af1158015610463573d6000803e3d6000fd5b505050506040513d601f19601f8201168201806040525081019061048791906108d8565b6104a457604051632e49196f60e01b8152600401610352906108fa565b9695505050505050565b6000806104b9610738565b905060006104c74734610810565b91505060006104d73483856101ac565b60005460405163a9059cbb60e01b8152336004820152602481018390529192506001600160a01b03169063a9059cbb906044015b6020604051808303816000875af115801561052a573d6000803e3d6000fd5b505050506040513d601f19601f8201168201806040525081019061054e91906108d8565b61056b57604051632e49196f60e01b8152600401610352906108fa565b9392505050565b60006001546000146105c7576040516305047fa760e41b815260206004820152601960248201527f44455820616c726561647920686173206c6971756964697479000000000000006044820152606401610352565b47600181905533600081815260026020526040808220939093555491516323b872dd60e01b81526004810191909152306024820152604481018490526001600160a01b03909116906323b872dd906064016020604051808303816000875af1158015610637573d6000803e3d6000fd5b505050506040513d601f19601f8201168201806040525081019061065b91906108d8565b6106a857604051632e49196f60e01b815260206004820152601760248201527f436f6e74726163742066756e64696e67206661696c65640000000000000000006044820152606401610352565b505060015490565b6000806106bb610738565b905060006106ca8483476101ac565b604051909150339082156108fc029083906000818181858888f193505050501580156106fa573d6000803e3d6000fd5b506000546040516323b872dd60e01b8152336004820152306024820152604481018690526001600160a01b03909116906323b872dd9060640161050b565b600080546040516370a0823160e01b81523060048201526001600160a01b03909116906370a0823190602401602060405180830381865afa158015610781573d6000803e3d6000fd5b505050506040513d601f19601f820116820180604052508101906107a5919061094e565b905090565b600080836000036107c157506001905060006107ee565b838302838582816107d4576107d46108a0565b04146107e75760008092509250506107ee565b6001925090505b9250929050565b600080838301848110156107e75760008092509250506107ee565b60008083831115610826575060009050806107ee565b50600193919092039150565b60008060006060848603121561084757600080fd5b505081359360208301359350604090920135919050565b60006020828403121561087057600080fd5b5035919050565b60006020828403121561088957600080fd5b81356001600160a01b038116811461056b57600080fd5b634e487b7160e01b600052601260045260246000fd5b6000826108d357634e487b7160e01b600052601260045260246000fd5b500490565b6000602082840312156108ea57600080fd5b8151801515811461056b57600080fd5b6020808252600f908201526e151c985b9cd9995c8819985a5b1959608a1b604082015260600190565b808202811582820484141761094857634e487b7160e01b600052601160045260246000fd5b92915050565b60006020828403121561096057600080fd5b505191905056fea264697066735822122052a7f4a1e2e0ef4702402301a084ffcf61c9ae5a1530aa199adbbddb483fb40f64736f6c63430008140033",
  "devdoc": {
    "kind": "dev",
    "methods": {
      "init(uint256)": {
        "details": "This function is a simple initialize function. it helps to add some liquidity to the DEX on creation"
      },
      "price(uint256,uint256,uint256)": {
        "details": "This is the function returns the price it will cost a for a swap."
      },
      "provideLiquidity()": {
        "details": "This is the function that allows  users add liquidity to the exchange"
      }
    },
    "version": 1
  },
  "userdoc": {
    "kind": "user",
    "methods": {},
    "version": 1
  },
  "storageLayout": {
    "storage": [
      {
        "astId": 1153,
        "contract": "contracts/Exchange.sol:Exchange",
        "label": "tokenAddress",
        "offset": 0,
        "slot": "0",
        "type": "t_address"
      },
      {
        "astId": 1155,
        "contract": "contracts/Exchange.sol:Exchange",
        "label": "totalLiquidity",
        "offset": 0,
        "slot": "1",
        "type": "t_uint256"
      },
      {
        "astId": 1159,
        "contract": "contracts/Exchange.sol:Exchange",
        "label": "liquidity",
        "offset": 0,
        "slot": "2",
        "type": "t_mapping(t_address,t_uint256)"
      }
    ],
    "types": {
      "t_address": {
        "encoding": "inplace",
        "label": "address",
        "numberOfBytes": "20"
      },
      "t_mapping(t_address,t_uint256)": {
        "encoding": "mapping",
        "key": "t_address",
        "label": "mapping(address => uint256)",
        "numberOfBytes": "32",
        "value": "t_uint256"
      },
      "t_uint256": {
        "encoding": "inplace",
        "label": "uint256",
        "numberOfBytes": "32"
      }
    }
  }
}